:100000005CC1000087C1000085C1000083C1000001
:1000100081C100007FC100007DC100007BC10000E4
:1000200079C100000C9467210C9494210C94C12197
:1000300071C100006FC100006DC100006BC1000004
:1000400069C1000067C1000065C1000063C1000014
:1000500061C100005FC100005DC100000C94A23CC2
:1000600059C100000C9486400C94CA4153C1000051
:1000700051C100004FC100004DC100004BC1000044
:1000800049C1000047C1000045C1000043C1000054
:100090000C94C6400C9409423DC100000C944A1FC8
:1000A00039C1000037C1000035C1000033C1000074
:1000B00031C100002FC100002DC100002BC1000084
:1000C00029C1000027C1000025C100000C94064191
:1000D0000C9448421FC100000C9446410C94874286
:1000E00019C1000000C201000100110011000C0044
:1000F00000E100000A002500250021000096000014
:100100001900390039003600127A00001F0046003D
:10011000460044008070000022004D004D004A005F
:10012000004B00003600750075007200403800007A
:100130004A009C009C009900802500007200EC00A1
:10014000EC00E900C0120000E900DA01DA01D70191
:1001500060090000D701B603B603B303B004000082
:10016000B3036E076E076B07580200006E07DC0EC4
:10017000DC0ED80E2C010000DC0EC11DC11DBE1D01
:1001800000002100240027002A002D003000330049
:1001900001010000040107010A01000022002500FE
:1001A00028002B002E003100340002010000050160
:1001B00008010B01000020002300260029002C006C
:1001C0002F003200000100000301060109010505AE
:1001D0000505070508080808020202020A0A0808BD
:1001E00004040404010101010101010103030303EB
:1001F00003030303040707070C0C0C0C0C0C0C0C7A
:100200000202020206060606060606060B0B0B0B8A
:100210000B0B0B0B010210202008081020401020AF
:1002200040800201020108040201010204081020BA
:1002300040808040201008040201800402018040B8
:100240002010080402010804020101020408102021
:10025000408001020408102040800000090A0208C2
:100260000B0C0D0706030401000000000000000055
:10027000000000000000000000000000000000007E
:1002800000000000000011100F000000000000003E
:10029000000000000000000000000000000000005E
:1002A000BF08EE1DD924AC2ABB2C1D2DB32F09305D
:1002B0004E36D43AF643D945BA0811241FBECFEFC3
:1002C000D1E2DEBFCDBF00E00CBF15E0A0E0B2E0A0
:1002D000ECECF2E900E00BBF02C007900D92A03CED
:1002E000B107D9F71BBE1DE0A0ECB5E001C01D921F
:1002F000A83EB107E1F712E0C8EBD2E004C02297B4
:10030000FE010E941F49C03AD107C9F70E94BF45AC
:100310000C945A4975CE0F931F93CF93DF93689F28
:100320008001699F100D789F100D1124C8010E9453
:100330004F3BEC01009721F060E070E0A80179D01C
:10034000CE01DF91CF911F910F910895A0E0B0E011
:10035000ECEAF1E00C942B49EC01A880B980CA804A
:10036000DB80A114B104C104D10441F484E2A82EBD
:1003700089EDB82E8BE5C82E87E0D82EC601B501D1
:100380002DE133EF41E050E00E94024927EA31E4D9
:1003900040E050E00E948E487B018C01C601B5010F
:1003A0002DE133EF41E050E00E940249CA01B9015A
:1003B0002CEE34EF4FEF5FEF0E948E486E0D7F1DE5
:1003C000801F911F97FF04C061507040804090488B
:1003D000688379838A839B839B01AC015F77B90132
:1003E000CA01CDB7DEB7EAE00C944749AFCF83E44A
:1003F00093E0ACCF60934303709344038093450331
:10040000909346030895FB01DC0104C08D91019097
:10041000801921F441505040C8F7881B990B08956A
:10042000FB01DC0102C001900D9241505040D8F711
:100430000895DC0101C06D9341505040E0F70895EC
:10044000FB01DC018D91019080190110D9F3990B0A
:100450000895FB01DC0101900D920020E1F7089561
:10046000FB019F01E8944230C4F04532B4F44A30B5
:1004700029F497FB1EF4909581959F4F642F772761
:100480000E94B948805D8A330CF0895D8193CB016D
:100490000097A1F716F45DE251931082C90100C0E4
:1004A000DC01FC01672F71917723E1F7329704C0DB
:1004B0007C916D9370836291AE17BF07C8F3089566
:1004C000EF92FF920F931F93E090F505F090F605E1
:1004D0000091F7051091F8058091F9059091FA05C2
:1004E000A091FB05B091FC05A8019701281B390BD1
:1004F0004A0B5B0B283C31054105510578F490917E
:10050000F2058091F305981749F48091FD058F5FFE
:100510008093FD0581E08093FE0514C08091FE0567
:10052000882371F0285532404040504048F4909163
:10053000F2058091F305981719F41092FE0502C098
:100540001092FD05E092F905F092FA050093FB0583
:100550001093FC058091F2058093F3051F910F9194
:10056000FF90EF900895089520910506222361F4ED
:100570008091060690E00196877090708093060641
:1005800081E0809304060895213061F4809107068C
:1005900090E001966AE070E00E94CD4880930706E3
:1005A00020930406089580910506882369F48091BC
:1005B0000606882311F487E001C081508093060667
:1005C00081E0809304060895813061F480910706EC
:1005D000882311F489E001C081508093070681E0EF
:1005E0008093040608958091D2038823E1F48091DA
:1005F000D4038823C1F48091D3038823A1F4EEE5CA
:10060000F3E08081882379F48181882361F48281F9
:10061000882349F48381882331F4709683E0EE3D8A
:10062000F80779F707C083E08093FF0581E08093A6
:100630000406089581E0F8CF80910506882389F5A6
:1006400080911006882359F580911206882339F588
:10065000AFE5B6E020E030E04EE450E08C91882336
:10066000F1F411968C9111978823C9F4249FF0011D
:10067000259FF00D349FF00D1124E95AF94F90E0B9
:100680008081882361F49F5F31969830C9F72F5F8E
:100690003F4FA25BBF4F2530310501F70AC083E011
:1006A00009C0813011F41092050681E080930406A0
:1006B000089581E08093FF05F8CF0F931F93CF93A8
:1006C000DF93EC018C010B541F4FD801ED91FC918D
:1006D000A081B18114962D913C911597CF01F9011C
:1006E0001995892B09F4CAC1D801ED91FC91A0811B
:1006F000B18116962D913C911797CF01F90119956B
:10070000482F2DA53EA52115310509F0FBC088A76E
:100710002DA127FFB9C1243F09F4B6C1253F09F433
:10072000B3C1293F09F4B0C12D3F09F4ADC1822FF7
:1007300090E0203F28F4807F90708038910591F000
:100740008039910579F0803B910561F0803A9105FF
:1007500049F0803D910531F0803E910519F0803CD3
:10076000910541F447FD06C028A749A781E090E024
:100770009EA78DA728A527FF0FC0243F69F0253F1E
:1007800059F0293F49F02D3F39F0822F90E0203F6A
:1007900028F4807F907002C080E090E0813F910556
:1007A00009F46CC0823F91054CF5803B910509F43A
:1007B00068C0813B91056CF48039910509F461C0F2
:1007C000803A910509F45DC08038910509F0E5C0D3
:1007D00058C0803D910509F451C0813D91052CF42C
:1007E000803C910509F0D9C049C0803E910509F4CB
:1007F00048C0803F910509F0D0C048C0883F9105AE
:10080000D1F0893F91055CF4833F9105B9F1833FB5
:100810009105BCF1863F910509F0BFC00CC08A3F2D
:1008200091050CF4BAC08D3F91052CF08E5F90407D
:10083000029708F0B2C027FF0FC0243F69F0253FA0
:1008400059F0293F49F02D3F39F0822F90E0203FA9
:1008500028F4807F907002C080E090E099AB88AB74
:100860001FA61AAA1BAACC54DF4F81E08883C45B61
:10087000D0401EA61DA61CA61BA601C182E090E0CA
:1008800002C083E090E09CA78BA707C080E890E0BF
:100890009CA78BA71DA280EF8CAB2DA53EA58BA599
:1008A0009CA501972817390708F4E4C088A587FF9D
:1008B00012C0843F81F0853F71F0893F61F08D3F28
:1008C00051F0282F30E0803F20F4C901807F9070E4
:1008D00004C0C90102C080E090E099AB88AB88A554
:1008E0008F708F5F8FA789A58AAB8BA59CA5039777
:1008F00019F48AA58BAB01C01BAA1EA61DA61CA6B7
:100900001BA612C087FF34C08D3F38F48A3F38F4ED
:10091000873F79F0883F61F502C08E3F48F148ABD0
:1009200019AA1AAA1BAA1FA6CC54DF4F81E08883FC
:10093000A6C08CA9803F89F5FE01E20FF31F44ABEE
:100940002F5F3F4F3EA72DA780EF90E099AB88AB7C
:100950002AAB8EA58BAB1FA6CC54DF4F81E08883DA
:10096000C45BD0401EA61DA61CA61BA61DA287C048
:1009700088A5FE01E20FF31F803F11F444AB01C0D4
:1009800040A72DA53EA58BA59CA501972817390743
:1009900008F470C088A5803F31F41EA61DA61CA6D1
:1009A0001BA61DA26BC087FF12C0843F81F0853F4C
:1009B00071F0893F61F08D3F51F0282F30E0803F8A
:1009C00020F4C901807F907004C0C90102C080E09A
:1009D00090E099AB88AB8038910599F0803991050A
:1009E00081F0803B910569F0803A910551F0803D9E
:1009F000910539F0803E910521F0803C910509F088
:100A000046C088A58F708F5F8FA789A58AAB8BA5FD
:100A10009CA5039719F48AA58BAB01C01BAA1EA63F
:100A20001DA61CA61BA6CC54DF4F81E08883C45BA7
:100A3000D04088A999A9803B9105B1F0813B9105EF
:100A400054F48039910581F0803A910569F080383D
:100A5000910569F409C0803D910531F0803E910512
:100A600019F0803C910519F488A58DA301C01DA241
:100A700081E005C02F5F3F4F3EA72DA780E0DF91AB
:100A8000CF911F910F91089580E090E059CE1FA65D
:100A9000BCCFFC0180A991A9813F910509F4BCC09C
:100AA000823F91054CF5803B910509F464C0813B80
:100AB00091056CF48039910509F446C0803A91059E
:100AC00009F477C08038910509F0D6C03AC0803D5E
:100AD000910509F47AC0813D91052CF4803C910583
:100AE00009F0CAC075C0803E910509F447C0803F37
:100AF000910509F0C1C077C08A3F910561F18B3F34
:100B000091058CF4833F910509F4A0C0833F9105C2
:100B10000CF485C0863F910509F4A1C0883F91057A
:100B200009F0AAC014C08C3F9105E9F08C3F9105F3
:100B3000B4F08E3F9105D9F08F3F910509F09CC02C
:100B400095C02081318137C02281338134C0008C2F
:100B5000F18DE02D87C0028CF38DE02D83C0048CD5
:100B6000F58DE02D7FC0068CF78DE02D7BC000A0B9
:100B7000F1A1E02D77C0268137811DC02485358500
:100B80002115310509F478C063A970E06F777070A2
:100B90007695762F66277795679582A990E08F776F
:100BA0009070682B792B6050704287A5F9011995D8
:100BB0000895248135812115310509F45DC087A58B
:100BC00062A943A9F901199508952285338502C0C8
:100BD000208531852115310509F44EC087A562A90C
:100BE000F90119950895468557854115510509F470
:100BF00043C093A980E022A9622F70E09F012C5C82
:100C00003F4F682B792B6138710510F060E870E078
:100C1000C901FA01199508952089318919C04289BD
:100C200053894115510541F183A990E08F77907068
:100C30009695982F88279795879522A930E02F774A
:100C40003070822B932BFA011995089524893589E8
:100C50002115310589F082A9F901199508950688B1
:100C6000F789E02D309741F01995089502A0F3A17E
:100C7000E02D309709F019950895DF92EF92FF92D9
:100C80000F931F93CF93DF93EC017B01142FD22E90
:100C90000150003108F068C0603871050CF464C080
:100CA000613E7105B4F5602F6F706E298EA18617B5
:100CB00071F06EA3CB54DF4FE881F981C55BD04062
:100CC000A081B1812D913C91CF01F9011995CB54AF
:100CD000DF4FE881F981A081B1811F772D913C918F
:100CE000CF01612FF901199580ECE816F104E9F1C3
:100CF00080EDE816F104C9F1E881F981A081B181A4
:100D00008FE7D8222D913C91CF016D2DF9011995D6
:100D10002CC0663F71054CF16F3F710509F02CF551
:100D20006D3F710554F46A3F710564F4663F7105C7
:100D300049F0683F7105A1F405C0CB018E5F90407A
:100D4000029770F4CB54DF4FE881F981C55BD04046
:100D5000A081B1812D913C91CF016E2DF9011995A2
:100D600086EFE816F10409F41EA2DF91CF911F91DE
:100D70000F91FF90EF90DF900895CF92DF92EF9266
:100D8000FF920F931F93CF93DF936C01DC01949636
:100D90008C91949780FF41C1382F369509F43DC15D
:100DA000D096CD91DC91D197CE018058904081367C
:100DB000910568F59F960C919F9797968C910817CF
:100DC00019F020E0882309F421E0832F90E082309D
:100DD000910539F08330910581F0019709F01DC12B
:100DE0000FC0222309F419C1C601BE01D601D29653
:100DF0004C91D297D3962C9108C0222309F00DC1B3
:100E0000C601BE01F60142A923A937DF06C1C63FCC
:100E1000D10549F1C73FD105ACF4C13FD10509F473
:100E2000CFC0C23FD1052CF4C03FD10509F0F5C0B9
:100E300044C0C23FD10509F485C0C33FD10509F0C4
:100E4000ECC065C0CD3FD10544F4CA3FD1055CF488
:100E5000C83FD10509F0E1C006C0CE018E5F9040C9
:100E6000029708F0DAC0CD3FD10554F4CA3FD1054E
:100E700064F4C63FD10549F0C83FD105C9F405C0A7
:100E8000CE018E5F9040029798F485EB90E0C80EFB
:100E9000D91ED601ED91FC918BE49FEFC80ED91EAF
:100EA000A081B1812D913C91CF016C2FF901199551
:100EB000C63FD10509F0B1C0ADC0F60193A980E0ED
:100EC00022A930E0282B392B2138310510F020E8F9
:100ED00030E086010C5C1F4FE901E496CC0DDD1D6E
:100EE00085EBE82EF12CEC0CFD1C0DC0D701ED912B
:100EF000FC91A081B1812D913C91CF01F8016191CC
:100F00008F01F90119950C171D0781F783C0F601B0
:100F100002A9B5EBEB2EF12CEC0CFD1CF701A08126
:100F2000B181ED91FC9111970190F081E02DCD01FF
:100F300063EF1995F701A081B181ED91FC911197B3
:100F400010E036C0F60103A910E01695102F002717
:100F50001795079582A990E0082B192BE5EBEE2E4B
:100F6000F12CEC0CFD1CF701A081B181ED91FC91FD
:100F700011970190F081E02DCD0162EF1995F701F5
:100F8000A081B181ED91FC911197B8016F777070DC
:100F90000190F081E02DCD011995F701A081B1817B
:100FA000ED91FC911197000F012F001F110B11956E
:100FB0000F7710700190F081E02DCD01602F29C0D6
:100FC000F60182A990E08770907064E0880F991F05
:100FD0006A95E1F713A91F70182B55EBE52EF12C3C
:100FE000EC0CFD1CF701A081B181ED91FC911197F2
:100FF0000190F081E02DCD0161EF1995F701A081FD
:10100000B181ED91FC9111970190F081E02DCD011E
:10101000612F1995D60196961C92DF91CF911F9161
:101020000F91FF90EF90DF90CF9008950F93813054
:10103000910509F088C06F5F7F4F09F099C089E67C
:1010400099E060E040E020E000E00E94CD4580ECC7
:1010500095E065E040E021E00E94341C89ED95E0D8
:1010600062E040E021E00E94341C89E997E066E0FC
:1010700049E020E00E94842482EC97E060E40E9432
:10108000DE1A8CE99DE0909379088093780810929D
:10109000C4071092C3071092C6071092C50710929A
:1010A000C8071092C7071092CA071092C90710927A
:1010B000CC071092CB071092CE071092CD0710925A
:1010C000D0071092CF071092D2071092D10710923A
:1010D000D4071092D3071092D6071092D50710921A
:1010E000D8071092D7071092DA071092D9071092FA
:1010F000DC071092DB071092DE071092DD071092DA
:10110000E0071092DF071092E2071092E1071092B9
:10111000E4071092E3071092E6071092E50781EECC
:1011200098E00E949E388CEF98E00E94D23A83E0CB
:1011300099E00E949E388DE199E060E240E122E072
:101140000E946F1C15C0892B99F46F5F7F4F81F44B
:1011500083E099E00E949C388CEF98E00E94D33A9B
:1011600081EE98E00E949C3889E997E00E940D2367
:101170000F91089580E090E06FEF7FEF57CF81E00F
:1011800090E06FEF7FEF52CF8CEF92E19093CA0720
:101190008093C907809178089091790842E15AE7D5
:1011A00060E070E00E94C64281E08093EA071092FE
:1011B000E9071092E8071092F1071092F0071092D9
:1011C000EF071092EE07109277081092F407109232
:1011D000F3071092F2071092F5071092F60783E0DA
:1011E0008093E7071092100610921206089588E384
:1011F0000E94A23E8093670987E30E94A23E8093EB
:10120000680908950F931F93082F142F8091FF05ED
:10121000823069F5442321F440E06623D1F138C0DF
:10122000413089F4662351F070E061507040660FE0
:10123000771F6F5F8DE199E041E02EC08DE199E06D
:101240006FEF40E029C0E62FF0E0E250FC4F408114
:10125000842F90E041FF28C034E0959587953A951A
:10126000E1F7682F615041708DE199E015C084303D
:10127000D9F480910506882321F440E08091060688
:1012800005C0813059F440E080910706882309F4B5
:1012900041E08DE199E060E00E940D1D8DE199E053
:1012A00060E072E00E9472408091FF05823031F56B
:1012B000112329F440E0002379F141E02DC0E02F13
:1012C000F0E0113051F43197EE0FFF1F6E2F6F5F7A
:1012D00040E0002381F041E00EC0E250FC4F40812D
:1012E000642F70E041FF23C094E0759567959A954F
:1012F000E1F7615041708DE199E011C08430B9F49B
:1013000080910506882319F44091060604C08130B7
:1013100041F44091070641708DE199E060E00E9440
:101320000D1D8DE199E062E072E00E9472401F9114
:101330000F9108956091030640910206442321F421
:10134000662351F481E005C0413059F4662321F44D
:1013500086E0809303061BC06150609303066F5FB5
:1013600016C0662319F486E0809303069091030665
:10137000915090930306E92FF0E0E250FC4F8081FA
:1013800082FF05C0992321F3915090930306809129
:10139000030638CF20910306822F8F5F409102060B
:1013A000442321F48170809303061AC0413011F464
:1013B00067E012C066E00E94AD4890930306E92FF3
:1013C000F0E0E250FC4F808182FF03C09F5F90936A
:1013D00003068091030666E00E94AD4890930306E1
:1013E00080910306622F0ECFEF92FF920F931F930F
:1013F0007B01EEEFF3E0E80FF11D40810DE119E014
:10140000642F70E054E0759567955A95E1F7417047
:10141000C8010E940D1DC801B7010E9472401F91B2
:101420000F91FF90EF9008958DE199E00C94411D8C
:10143000EF92FF920F931F937C01F6DF0DE119E00D
:10144000C80162E040E00E940D1DC801B7010E9482
:101450007240C80162E041E00E940D1DC80164E0D5
:1014600072E00E947240C80169E041E00E940D1DD7
:1014700060914F0370E06F5F7F4FC8014AE050E01A
:101480000E9460401F910F91FF90EF900895CF92BE
:10149000DF92EF92FF920F931F938C01E62EC4DF31
:1014A0006DE1C62E69E0D62EC60160E040E00E94E4
:1014B0000D1DFF240894E11CF11CC601B7014AE090
:1014C00050E00E946040C60163E040E00E940D1DB4
:1014D000C601B8010E9472401F910F91FF90EF90DA
:1014E000DF90CF9008950F931F939EDF0DE119E0D9
:1014F000C80160E040E00E940D1DC8016BE072E091
:101500000E947240C80160E041E00E940D1DC801C8
:101510006CE172E00E9472401F910F910895E3CF39
:1015200008950F931F93DF93CF93CDB7DEB76297E4
:101530000FB6F894DEBF0FBECDBF76DF8DE199E028
:1015400060E040E00E940D1D8DE199E06DE272E0E7
:101550000E9472408DE199E060E041E00E940D1D23
:10156000CE01019660E040E020E000E00E94CD4521
:101570008E01095F1F4FC80161E87AE00E94BB2A13
:10158000F80122813381448155818B819C81AD8119
:10159000BE81281739074A075B0739F48DE199E0C6
:1015A00063E372E00E9472400DC08E01035F1F4F23
:1015B000C80161E87AE00E94BB2A8DE199E0B80198
:1015C0000E94033F62960FB6F894DEBF0FBECDBFF8
:1015D000CF91DF911F910F910895CF92DF92EF92FB
:1015E000FF920F931F936C01F62EE42E0DE119E08C
:1015F000C8016DE00E940D1DC80168E372E00E9401
:1016000072408DE0F80EC8016F2D4E2D0E940D1D09
:10161000C801B6014AE050E00E94D33F1F910F91EC
:10162000FF90EF90DF90CF90089580910606882379
:1016300019F08130B9F51BC090910F06913029F453
:101640008091F2058F3F39F40895903121F4809113
:10165000F205813039F18091F205890F80930F06F0
:1016600091E09093100690E061E040E0B6CF909159
:101670001106913029F48091F2058F3F39F40895D5
:101680009F3721F48091F205813061F08091F2055D
:10169000890F8093110691E09093120690E060E02C
:1016A00041E09BCF0895CF93DF9390910506992356
:1016B000C1F490910606892F8250853040F481E074
:1016C00080930506109207068093040670C0973039
:1016D00009F06DC026DF809105068F5F80930506B7
:1016E00066C0913009F063C080910706883028F405
:1016F00090930806909304065AC089ED95E00E94E5
:10170000B31BCEE4D0E04BC080E00E946E3C9C0155
:10171000809107068830F9F480914F0390E08C9F08
:10172000F0018D9FF00D9C9FF00D1124ED5AF94FA3
:1017300020833183C90160E040E04FDF80914F0397
:1017400090E08C9FF0018D9FF00D9C9FF00D112477
:10175000E15AF94F1EC080914F0390E08C9FF00139
:101760008D9FF00D9C9FF00D1124EB5AF94F2083B3
:101770003183C90160E041E030DF80914F0390E0A8
:101780008C9FF0018D9FF00D9C9FF00D1124E05A6D
:10179000F94F81E0808389ED95E00E94B31B809131
:1017A000D9059091DA058F5F9F4F09F0ADCFDF919A
:1017B000CF9108950F931F93CF93DF9335DE8091E0
:1017C0000606843018F48230B8F405C08630C8F0BC
:1017D000883000F51BC0CCE3D2E009E412E0809130
:1017E0000F0690E061E040E0F8DE8091110690E0A5
:1017F00060E041E0F2DE0EC0C3E5D2E00CE512E0AD
:1018000009C0C5E6D2E00EE612E004C0C7E7D2E0A8
:1018100000E812E08DE199E061E040E00E940D1DDA
:101820008DE199E0BE010E9472408DE199E061E096
:1018300041E00E940D1D8DE199E0B8010E947240C7
:1018400080E060E040E0DEDCDF91CF911F910F91FE
:1018500008950F931F93E8DD0DE119E0C80160E0E2
:1018600040E00E940D1DC80163E872E00E947240D2
:1018700064EF71E080E090E00E94F83C1F910F91CE
:101880000895E7DF1092060684E08093FF0581E06B
:101890008093040608950F931F93C6DD0DE119E0B0
:1018A000C80160E040E00E940D1DC80164E972E0DB
:1018B0000E94724068EE73E080E090E00E94F83C85
:1018C0001F910F9108950F931F93AEDD0DE119E065
:1018D000C80160E040E00E940D1DC8016EE972E0A1
:1018E0000E94724064EF71E080E090E00E94F83C5A
:1018F0001F910F9108958091B907882359F0E3DF74
:10190000109202061092030682E08093FF0581E0A8
:101910008093040608950F931F9386DD0DE119E06F
:10192000C80160E040E00E940D1DC8016FEA72E04E
:101930000E947240C80160E041E00E940D1DC80194
:101940006EEB72E00E94724068EE73E080E090E01F
:101950000E94F83C69DDC80160E040E00E940D1D76
:10196000C8016FEC72E00E94724068EE73E080E0A4
:1019700090E00E94F83C1F910F910895CCDF81E028
:101980008093FF058093040608950F931F93DF93C0
:10199000CF9300D00F92CDB7DEB7062FE82FF0E03F
:1019A000E250FC4F4081642F70E0E4E0759567954C
:1019B000EA95E1F741708DE199E00E940D1D0A3032
:1019C00028F48DE199E060EE72E006C0043630F450
:1019D0008DE199E063EE72E00E947240802F90E00A
:1019E0008E010F5F1F4FB8014AE050E00E943002A5
:1019F0008DE199E0B8010E9472400F900F900F9016
:101A00000F90CF91DF911F910F9108950F931F9326
:101A1000DF93CF9300D00F92CDB7DEB705DD809175
:101A20000206815090E08E010F5F1F4FB8014AE01F
:101A300050E00E94300280E0B801D6DC60910206DE
:101A400070E06250704043E0660F771F4A95E1F7FF
:101A500080914F032EE4829FC0011124680F791FEB
:101A60006D5E794F81E0C0DCE0910206F0E034E089
:101A7000EE0FFF1F3A95E1F707E413E07897E00FC8
:101A8000F11F82E0638581DFE0910206F0E032978A
:101A900024E0EE0FFF1F2A95E1F7E00FF11F83E02E
:101AA000648973DFE0910206F0E0329794E0EE0F74
:101AB000FF1F9A95E1F7E00FF11FE589F0E0EE0FC7
:101AC000FF1FE850FC4F6081718184E08DDC8091C4
:101AD000020690E00297B4E0880F991FBA95E1F7EB
:101AE000080F191FD8015696EC91F0E0EE0FFF1F7A
:101AF000E051FC4F6081718185E076DC0F900F90A2
:101B00000F900F90CF91DF911F910F910895CF9378
:101B1000DF93EC018DE199E00E940D1D98819032D8
:101B200029F48091F2058F3F39F41FC09A3521F4D2
:101B30008091F2058130C9F08091F205890F888388
:101B4000813211F480E30BC08A3311F481E407C0C1
:101B5000803411F489E303C08F3211F480E288836A
:101B60008DE199E068810E94FB3EDF91CF9108955D
:101B70001F930E94EA3C6093F5057093F6058093ED
:101B8000F7059093F80583E00E94A23E182F84E0A9
:101B90000E94A23E110F182B8091F4051817A9F08E
:101BA000880F880F812B1093F405843011F08B304F
:101BB00021F481E08093F20509C08750823028F437
:101BC0008FEF8093F20581E001C080E01F910895BE
:101BD0001F93182F8DE199E00E940D1D80910A0638
:101BE00090910B06A0910C06B0910D060097A105EF
:101BF000B10559F40E94EA3C60930A0670930B0603
:101C000080930C0690930D0629C00E94EA3C209117
:101C10000A0630910B0640910C0650910D06621B8E
:101C2000730B840B950B6F5E724080409040F0F018
:101C30000E94EA3C60930A0670930B0680930C06A0
:101C400090930D0680910E06882341F08DE199E076
:101C5000612F0E94FB3E10920E0608C08DE199E0B4
:101C600061E00E94D71C81E080930E061F910895C9
:101C70000F931F93CF93DF93EC01062F142F8DE169
:101C800099E060E00E940D1D8DE199E060E072E056
:101C90000E94724089ED95E00E94B31B80EC95E0B4
:101CA00063C08091C0059091C1050197E1F48091D6
:101CB00009068630C0F48F5F809309068DE199E0B4
:101CC000602F412F0E940D1D8DE199E0BE010E9401
:101CD000724010920E0610920A0610920B06109295
:101CE0000C0610920D068091D9059091DA050197A6
:101CF000E1F4809109068823C1F0815080930906A0
:101D00008DE199E0602F412F0E940D1D8DE199E03A
:101D1000BE010E94724010920E0610920A061092A6
:101D20000B0610920C0610920D0622DF882369F034
:101D30000E94600280910906602F680F9E01280FA3
:101D4000311DC901412FE3DE09C060910906FE0182
:101D5000E60FF11D600F8081412F3ADF80EC95E0A6
:101D60000E94B31B89ED95E00E94B31B8091D905B9
:101D70009091DA058F5F9F4F09F093CF8DE199E045
:101D800060E0412F0E940D1D8DE199E060E072E05E
:101D90000E9472408DE199E0602F412F0E940D1D3D
:101DA0008DE199E0BE010E9472401092090681E027
:101DB000809304061092080610920A0610920B06F1
:101DC00010920C0610920D06DF91CF911F910F918A
:101DD000089580910206882361F480910306882388
:101DE00041F487E493E062E040E042DF81E08093E9
:101DF000D20308950F931F93809108064091070620
:101E0000882399F1842F90E0A3E0880F991FAA9569
:101E1000E1F72091060630E0225030400EE410E059
:101E2000B901609F9001619F300D709F300D1124AA
:101E3000820F931F41708D5E994F63E019DF2091EF
:101E400007068091060690E00297809FF001819F2F
:101E5000F00D909FF00D1124ED5EF94FE20FF11D92
:101E6000EC5BFF4F81E0808302C1483008F43EC044
:101E7000DBDA8DE199E061E040E00E940D1D8DE12B
:101E800099E065EE72E00E94724080914F0390E00D
:101E90000EE410E0809FF001819FF00D909FF00D07
:101EA0001124ED5AF94F8081918160E040E095DB8B
:101EB0008DE199E061E041E00E940D1D8DE199E026
:101EC0006EEE72E00E94724080914F0390E0809F1E
:101ED000F001819FF00D909FF00D1124EB5AF94F06
:101EE0008081918160E041E078DBBDC040FD53C05E
:101EF0009BDA8DE199E061E040E00E940D1D609168
:101F0000070670E06F5F7F4F8DE199E04AE050E097
:101F10000E9460408DE199E063E040E00E940D1D69
:101F20006091070670E0F3E0660F771FFA95E1F71E
:101F30008091060690E002970EE410E09C01209F3D
:101F4000C001219F900D309F900D1124680F791FC3
:101F50006D5E794F8DE199E00E9472408DE199E0CC
:101F600061E041E00E940D1D6091070670E06E5F28
:101F70007F4F8DE199E04AE050E00E9460408DE1A2
:101F800099E063E041E00E940D1D6091070670E05A
:101F90006F5F7F4F4FC048DA8DE199E061E040E02C
:101FA0000E940D1D8DE199E0609107064AE050E026
:101FB0000E94E33F8DE199E063E040E00E940D1D47
:101FC0006091070670E061507040E3E0660F771F94
:101FD000EA95E1F78091060690E002970EE410E0A2
:101FE0009C01209FC001219F900D309F900D1124D6
:101FF000680F791F6D5E794F8DE199E00E94724004
:102000008DE199E061E041E00E940D1D60910706BD
:1020100070E06F5F7F4F8DE199E04AE050E00E94F1
:1020200060408DE199E063E041E00E940D1D609108
:10203000070670E053E0660F771F5A95E1F780912D
:10204000060690E002979C01209FC001219F900D01
:10205000309F900D1124680F791F6D5E794F8DE1CF
:1020600099E00E94724080E060E040E0CBD81F9190
:102070000F91089580910506882319F0813019F495
:1020800001C098CBB7CE08951F93CF93DF9312E092
:10209000C5E0D0E08DE199E0612F41E00E940D1D87
:1020A00060915003709151030C2E02C07595679595
:1020B0000A94E2F761708DE199E00E94D71C1E5FDF
:1020C00021971E3039F7DF91CF911F9108950F931B
:1020D0001F93AAD90DE119E0C80162E040E00E9417
:1020E0000D1DC80167EF72E00E947240CDDF1F91A5
:1020F0000F91089580910206882321F487E493E0EC
:1021000097D905C0813011F4E2DF01C07FDC80E0A7
:1021100060E04091020676C80F931F930DE119E02D
:10212000C8010E94A81DC8010E94471DC80160E0A7
:1021300044E054E00E94DE1CC80161E04CE054E041
:102140000E94DE1C109200061092020610920306F6
:10215000109208061092090610920A0610920B06B9
:1021600010920C0610920D061092FF0581E08093EC
:1021700004061F910F9108950F931F93DF93CF9340
:10218000CDB7DEB72C970FB6F894DEBF0FBECDBF2C
:1021900085E361E00E94BD3D8AE061E00E94BD3DB3
:1021A0008AE061E00E94703E81E89AE062EE73E0AE
:1021B0000E941D2C892B79F48E010F5F1F4FC801DF
:1021C00068EE73E00E94344681E89AE062EE73E0C4
:1021D000A8010E94E62B6091EC037091ED038CE75F
:1021E00098E00E94C8368E01095F1F4FC80161E860
:1021F0007AE00E94BB2A88E59DE0B8010E942E3F4C
:102200002C960FB6F894DEBF0FBECDBFCF91DF91F5
:102210001F910F9108950F931F93CF93DF938CE736
:1022200098E00E94A136882309F48DC08CE798E0DD
:102230000E94493690930209809301090E94F03769
:102240006DEF72E00E9420029C0180910109909143
:102250000209232B69F460E070E00E94F43780915A
:1022600001099091020961E070E00E940C386BC096
:102270000E94F03762E073E00E9420029C0180918E
:10228000010990910209232B69F460E070E00E943B
:10229000F437AB01BC0188E59DE02AE030E00E9404
:1022A0004E4051C00E94F037C7E0D3E0BE010E940B
:1022B0002002009709F047C080910109909102091E
:1022C0000E94EB3790937B0880937A0888E59DE025
:1022D0006DE073E00E94744003E019E060917A08B9
:1022E00070917B084091EE035091EF03C8010E946A
:1022F000D4378DB79EB708970FB6F8949EBF0FBE20
:102300008DBFEDB7FEB73196ADB7BEB712961C9331
:102310000E931197D383C28384E193E095838483E2
:1023200081E090E0978386830E9421398DB79EB724
:1023300008960FB6F8949EBF0FBE8DBF8CEF98E045
:10234000B8010E94463BDF91CF911F910F910895F4
:102350000F931F9302EC17E0C8010E94A81B609125
:10236000E10370E080E090E00E944847AB01BC01CF
:10237000C8010E94541B1F910F9108959F92AF9224
:10238000BF92CF92DF92EF92FF920F931F93982EFE
:1023900000D00F9270E080E090E0A090DD03B0905C
:1023A000DE03CC24DD242091DF033091E00340E004
:1023B00050E0EDB7FEB7218332834383548320E09E
:1023C00030E040E050E0BFEFEB2EF12C012D112D5D
:1023D0000E942C458B019C010F900F900F900F9045
:1023E00082EC97E0692D40E050E098010E94FD1AD0
:1023F0001F910F91FF90EF90DF90CF90BF90AF9023
:102400009F9008952F923F924F925F926F927F928A
:102410009F92AF92BF92CF92DF92EF92FF920F9373
:102420001F93CF93DF93BC0180914F03A82FB0E09F
:102430008EE490E0A89FF001A99FF00DB89FF00DE9
:102440001124ED5EF94FE05CFF4F20813181E054B3
:10245000F0406217730710F4C9010AC0EE5BFF4F2A
:102460000190F081E02DCB01E617F70708F4CF01CA
:1024700000D00F92BC0180E090E040E050E0EEE43C
:10248000F0E0EF01AC9FF001AD9FF00DBC9FF00DAF
:102490001124EB5AF94FE080F18000E010E0EFEFFB
:1024A000AE2EB12CC12CD12CEDB7FEB7A182B282D9
:1024B000C382D482AA24BB2465010E942C45CAE5AC
:1024C000D3E099240F900F900F900F902B0166246A
:1024D000772400E5202E04E0302E260E371E8B8157
:1024E000813009F03FC08A81882319F08330D0F50C
:1024F00013C000D00F92A880BB24CC24DD24898196
:1025000090E0A0E0B0E0EDB7FEB781839283A383B3
:10251000B483C301B20115C000D00F92F1016081F4
:1025200070E080E090E0A880BB24CC24DD242981E9
:1025300030E040E050E0EDB7FEB7218332834383C3
:10254000548320E030E040E050E01FEFE12EF12C1A
:10255000012D112D0E942C450F900F900F900F9080
:10256000892D0CDF93946096F8E09F1609F0B7CFA1
:10257000DF91CF911F910F91FF90EF90DF90CF905F
:10258000BF90AF909F907F906F905F904F903F90E3
:102590002F900895CF93DF9380E00E946E3CEC0172
:1025A0008091290990912A09FC01EE0FFF1FE55D3A
:1025B000F64FD183C08301966DE170E00E94B94867
:1025C0009C01FC01EE0FFF1FE55DF64F80819181BC
:1025D000AE01481B590BCA0157FF03C09095819566
:1025E0009F4F30932A0920932909049710F0CE01B8
:1025F00009DFDF91CF9108959F92AF92BF92CF9262
:10260000DF92EF92FF920F931F93982E613079F52E
:1026100000D00F92642F70E080E090E02FEF30E068
:1026200040E050E0EDB7FEB721833283438354830B
:1026300020E030E040E050E00FE7E02EF12C012DEB
:10264000112DAA24BB2465010E942C45E92DF0E040
:1026500014E0EE0FFF1F1A95E1F7E15CFC4F638772
:102660000F900F900F900F90892D815087DE1F9152
:102670000F91FF90EF90DF90CF90BF90AF909F9021
:1026800008951F93CF93DF93CAE5D3E010E0812F25
:10269000688174DE1F5F60961830C9F7DF91CF91B3
:1026A0001F910895DF92EF92FF920F931F93282FAF
:1026B0008B01D42E85EBE82E89E0F82EC701622F1E
:1026C0000E94AA1DC701612F0E94351E1070C7010C
:1026D000602F0E94351EC7016D2D0E94351EC70157
:1026E0000E94761E65E070E080E090E00E94F83C79
:1026F0001F910F91FF90EF90DF9008951F93CF935C
:10270000DF93182FEB0180911006882331F010928F
:102710001006812F40910F06C5DF80911006882397
:1027200041F0109210062196812FBE0140911106B2
:10273000B9DFDF91CF911F9108952F923F924F9271
:102740005F926F927F928F929F92AF92BF92CF9241
:10275000DF92EF92FF920F931F93DF93CF9300D0FE
:102760000F920F92CDB7DEB789834B0153E5E52E6B
:1027700056E0F52E22243324F7018485882369F05E
:102780008981B40140818EDFB4016F5F7F4FF70113
:102790004181898187DFF7011486F70185858823C8
:1027A00079F0B4016E5F7F4F898142817BDFB40194
:1027B0006D5F7F4FF7014381898174DFF7011586D3
:1027C0002EE430E0229EC001239E900D329E900D9B
:1027D000112447E5A42E46E0B42EA80EB91E34E01D
:1027E000432E512C480C591C28EC622E2FEF722ED0
:1027F0006E0C7F1CCC24DD249B838A83F5018081B1
:10280000882301F1960193E0220F331F9A95E1F797
:102810008A819B81280F391F2D5E394F3D832C8380
:1028200082018981B801EC81FD814191FD83EC83B6
:1028300039DFF50110820F5F1F4F2C813D81261576
:10284000370579F70894C11CD11C0894A11CB11C50
:1028500088E090E0480E591E680E791E98E0C9166F
:10286000D10461F60894211C311CE4E4F0E08E0EE2
:102870009F1E2EE430E0E20EF31E35E023163104F5
:1028800009F07ACF0F900F900F900F900F90CF918B
:10289000DF911F910F91FF90EF90DF90CF90BF904D
:1028A000AF909F908F907F906F905F904F903F90F0
:1028B0002F900895EF92FF920F931F937C018B014D
:1028C0001DDF0E5F1F4FC701B80137DF1F910F914A
:1028D000FF90EF900895DF92EF92FF920F931F9376
:1028E000CF93DF93D82E7B0150E074E0440F551F47
:1028F0007A95E1F7EA01C65ADC4F8A01025A1C4F69
:102900008C81882329F08D2DB7014881CBDE1C8274
:1029100021960894E11CF11CC017D10789F7DF91BB
:10292000CF911F910F91FF90EF90DF900895982F16
:102930008091D303882331F0892F40915003B2DE78
:102940001092D3030895982F8091D403882331F0F7
:10295000892F40914F03A6DE1092D4030895FF9271
:102960000F931F93CF93DF93F82E8B018091D203A7
:10297000882371F0C7E4D3E08F2DB801499192DE2E
:102980000F5F1F4F83E0CF34D807B1F71092D20307
:10299000DF91CF911F910F91FF900895FF920F93B8
:1029A0001F93DF93CF930F92CDB7DEB7F82E8B0135
:1029B000D6DF085F1F4F8F2DB801C5DF0F5F1F4F98
:1029C0008F2D90E0B801B3DF0F5F1F4F90E08F2D88
:1029D000B801492F99837FDF0C5F1F4F99819F5F5B
:1029E0009830A9F762E370E080E090E00E94F83C44
:1029F0000F90CF91DF911F910F91FF9008950E944A
:102A00004B0C8091D2038823E1F48091D403882376
:102A1000C1F48091D3038823A1F4EEE5F3E0808133
:102A2000882379F48181882361F48281882349F4A1
:102A30008381882331F4709683E0EE3DF80779F7BF
:102A400006C06091B5077091B60780E5A7DF809159
:102A50001006882359F580911206882339F5AFE5D1
:102A6000B6E020E030E04EE450E08C918823F1F4B1
:102A700011968C9111978823C9F4249FF001259F0A
:102A8000F00D349FF00D1124E95AF94F90E0808148
:102A9000882361F49F5F31969830C9F72F5F3F4FCD
:102AA000A25BBF4F2530310501F705C080E590E0FE
:102AB00060E070E0FFDE81E08093FF058093040614
:102AC0000895EF92FF920F931F937C018B0185EB8A
:102AD00099E0B7010E94B41D85EB99E0612F0E9437
:102AE000351E107085EB99E0602F0E94351E85EB36
:102AF00099E00E94761E85EB99E0B70141E050E035
:102B00000E94841E85EB99E00E94BE1D892B29F04E
:102B100085EB99E00E94C71D06C065E070E080E08B
:102B200090E00E94F83C1F910F91FF90EF90089564
:102B3000EF92FF920F931F937C018B01C2DF809372
:102B40000F060F5F1F4FC701B801BBDF809311064F
:102B500010921006109212061F910F91FF90EF90A5
:102B600008952F923F924F925F926F927F928F9231
:102B70009F92AF92BF92CF92DF92EF92FF920F930C
:102B80001F93DF93CF93CDB7DEB72E970FB6F89490
:102B9000DEBF0FBECDBF1C016B01A3E56A2EA6E010
:102BA0007A2E1A861986C101B6018BDF182FB6015D
:102BB0006F5F7F4FC10185DF582E4424C201810F12
:102BC000911DF30191838083B6016E5F7F4FC10138
:102BD00078DF182FB6016D5F7F4FC10172DF982E2D
:102BE0008824C401810F911DF3019383828314868D
:102BF000158629853A854EE450E0249FC001259F23
:102C0000900D349F900D1124FC01E95AF94FFC8777
:102C1000EB87F4E0AF2EB12CAC0CBD1CEE24FF24EE
:102C20009E878D8732C0B8016A0D7B1DC10149DFC7
:102C3000E1E0F0E0EC0FFD1FE00FF11F80830F5F7C
:102C40001F4F0830110579F7C701E3E0880F991F7E
:102C5000EA95E1F72D853E85820F931F8D5E994F92
:102C6000BE016F5F7F4F0E942902EB85FC851192A8
:102C7000FC87EB870894E11CF11C28E030E0A20EF1
:102C8000B31E38E0E316F10419F000E010E0CBCFFA
:102C900049855A854F5F5F4F5A87498784E490E0A2
:102CA000C80ED91EEEE4F0E06E0E7F1E45305105D1
:102CB00009F079CF2E960FB6F894DEBF0FBECDBFC8
:102CC000CF91DF911F910F91FF90EF90DF90CF9008
:102CD000BF90AF909F908F907F906F905F904F903C
:102CE0003F902F900895EF92FF920F931F937C01D6
:102CF0008B011EDF0E5F1F4FC701B80132DF1F912E
:102D00000F91FF90EF900895DF92EF92FF920F9353
:102D10001F93CF93DF93D82E7B0150E014E0440F34
:102D2000551F1A95E1F7EA01C65ADC4F8A01025A8B
:102D30001C4F8D2D90E0B701C4DE88831C8208945F
:102D4000E11CF11C2196C017D10799F7DF91CF91B3
:102D50001F910F91FF90EF90DF900895B2DE809366
:102D6000500310925103089590E0ABDE80934F031F
:102D70000895FF920F931F93CF93DF93F82E8B014B
:102D8000CAEBD7E08F2D90E0B8019BDE89930F5FEF
:102D90001F4F87E0C23CD807A9F7DF91CF911F9161
:102DA0000F91FF900895E5DF20E030E0F901E95B45
:102DB000FC4FD901A654B84F8C9180832F5F3F4FB1
:102DC0002830310599F70895FF920F931F93DF93F1
:102DD000CF930F92CDB7DEB7F82E8B01E4DF085FFB
:102DE0001F4F8F2DB801C0DF0F5F1F4F8F2D90E059
:102DF000B801B4DF0F5F1F4F90E08F2DB801492F4E
:102E0000998382DF0C5F1F4F99819F5F9830A9F7EC
:102E100081E08093B9070F90CF91DF911F910F91BF
:102E2000FF9008956091B5077091B60780E5CCDFFB
:102E300080E590E060E070E056DF81E08093FF0580
:102E40008093040608951F938091B9078823B9F0F1
:102E5000609100066623F1F06150609300068FE2F6
:102E6000689FB00111246A5A7E4F7093B607609331
:102E7000B50780E5A9DF81E0809304060BC011E06F
:102E80001093B9076091B5077091B60780E59CDF94
:102E9000109304061F9108958091B907882371F05B
:102EA000809100068B33B0F48F5F809300062FE291
:102EB000829FC00111248A5A9E4F08C0809101064A
:102EC000809300068091B7079091B8079093B6075A
:102ED0008093B5076091B5077091B60780E574DF00
:102EE00081E08093040608950F931F9388E30E9466
:102EF000A23E182F87E30E94A23E082F8091670907
:102F0000181739F08091FF05813019F4C5DF10934F
:102F1000670980916809081739F08091FF058130B1
:102F200019F491DF009368091F910F9108951F9381
:102F300072D91091EA07113190F583EC97E00E9465
:102F40005D03882361F18091F3079091F407803944
:102F5000910551F48091F607882331F480E890E0E0
:102F60009093F4078093F3078091F3079091F4070F
:102F7000009781F0805890408136910508F078C024
:102F80009091EA078091F207891709F471C099239B
:102F900009F46EC083EC97E0612F0E94BD06FADA57
:102FA0008091FF05813009F49FDF8091040688231A
:102FB00069F010920406E091FF05F0E0EE0FFF1FAC
:102FC000EC5EFB4F0190F081E02D199580EC95E0CF
:102FD000CAD38091C0059091C1058130910541F41B
:102FE000E091FF05F0E0EE0FFF1FE25EFB4F0AC02D
:102FF0008F5F9F4F59F4E091FF05F0E0EE0FFF1F48
:10300000EE5CFB4F0190F081E02D199589ED95E084
:10301000AAD38091D9059091DA058130910541F4C8
:10302000E091FF05F0E0EE0FFF1FE85DFB4F0AC0E7
:103030008F5F9F4F59F4E091FF05F0E0EE0FFF1F07
:10304000E45CFB4F0190F081E02D19950E94B80DD2
:10305000882399F00E946002E091FF05F0E0EE0FF6
:10306000FF1FEA5BFB4F0190F081E02D199505C031
:1030700083EC97E00E9449058DCF1F91089586E566
:1030800091E09093B6078093B5071092B90780E559
:1030900090E060E070E027DE6091B5077091B607C0
:1030A00080E592CE8091B907882321F080910006B7
:1030B0008093010690910106992339F08091F205E1
:1030C0008F3F41F09B3308F056C08091F20581306C
:1030D00009F051C08091FD05853110F08BE009C0E9
:1030E0008B3010F086E005C0853010F082E001C022
:1030F00081E04091F20520E030E0682F70E00CC0E4
:103100004F3F19F4992329F405C0413011F49B3342
:1031100009F0940F2F5F3F4F261737078CF39093DA
:10312000010680910006981791F46FE2969FB00116
:1031300011246A5A7E4F7093B6076093B50780E5F5
:1031400043DE81E0809304068093B90708956FE21F
:10315000969FB00111246A5A7E4F7093B80760930E
:10316000B70780E506DE8AEB97E0609101060E94D2
:10317000470A1092B9070895CF93DF93C5EDD3E0C6
:1031800089E997E069910E944F2383E0CD3DD807FC
:10319000B9F7DF91CF910895FF920F931F93F82E07
:1031A00009E917E0C8016FEB0E944F236F2D605BA8
:1031B000C8010E944F2325E030E02F19310980918A
:1031C00050039091510302C0959587952A95E2F797
:1031D00081709070BC017695762F662777956795FC
:1031E000681B790BC8010E944F231F910F91FF901C
:1031F00008951F9310910206112381F58091030613
:10320000882331F48091F205813009F063C12FC029
:10321000813009F05FC19091F2059F3F29F48091C0
:103220004F03882341F456C1913029F480914F0314
:10323000843009F44FC180914F03980F90934F034E
:1032400081E08093D40387E493E00E94180A81E030
:1032500060E0409102060E9402093CC18091030691
:10326000113041F5882341F48091F2058F5F8093FE
:1032700002060E947A102EC126E030E0281B310998
:1032800081E090E002C0880F991F2A95E2F7209113
:1032900050033091510382279327909351038093D9
:1032A00050030E94441080910306815075DF1093F3
:1032B000D30310C1843028F4823098F4882341F07D
:1032C00009C1843009F467C0853009F003C1C2C068
:1032D0008091F205813019F4193009F4FBC0810F97
:1032E000C6CFA12FB0E01297482F50E04250504077
:1032F000FD0194E0EE0FFF1F9A95E1F7E95BFC4FAB
:10330000E40FF51F63899091FD05953110F09BE066
:1033100009C09B3010F096E005C0953010F092E0A7
:1033200001C091E07091F20520E030E0E92FF0E07B
:103330000CC07F3F19F4662329F405C0713011F4E5
:103340006F3F09F0670F2F5F3F4F2E173F078CF33A
:1033500014E0AA0FBB1F1A95E1F7A95BBC4FA40F9D
:10336000B51F53966C930E94C50C80910206E82FFE
:10337000F0E090910306B4E0EE0FFF1FBA95E1F77D
:10338000E90FF11DEB5DFC4F91E0978B8250638953
:103390000E94BE119FC088E59DE066E173E00E9437
:1033A0007240E0910206F0E0A4E0EE0FFF1FAA9544
:1033B000E1F7E95DFC4F88E59DE065894AE050E072
:1033C0000E94F43F9091F2059F3F89F4809102069C
:1033D000E82FF0E074E0EE0FFF1F7A95E1F7E95D6A
:1033E000FC4F8589882319F482E0858B10C0E09119
:1033F0000206F0E064E0EE0FFF1F6A95E1F7E95D79
:10340000FC4F8589890F63E00E94AD48958BE09160
:103410000206F0E054E0EE0FFF1F5A95E1F7E95D78
:10342000FC4FE589F0E0EE0FFF1FE850FC4F608194
:103430007181809103060E94F409E0910206F0E098
:1034400034E0EE0FFF1F3A95E1F7E95DFC4F81E0B4
:10345000818F40C09091F2059F3F79F4E12FF0E019
:1034600024E0EE0FFF1F2A95E1F7E95DFC4F868906
:10347000882319F483E0868B0DC0E12FF0E084E00F
:10348000EE0FFF1F8A95E1F7E95DFC4F8689980FE3
:103490009370968BE12FF0E014E0EE0FFF1F1A956A
:1034A000E1F7E95DFC4FE689F0E0EE0FFF1FE05128
:1034B000FC4F6081718185E00E94F409E091020671
:1034C000F0E0A4E0EE0FFF1FAA95E1F7E95DFC4FE5
:1034D00081E0828F1F9108951F9310E0812F5CDEA1
:1034E0001F5F1630D9F71F910895CBD887E493E07A
:1034F000609100060E94470A0E944410EDCF89E9BE
:1035000097E042E15AE760E070E068D735DEE4CF4B
:1035100088E59DE040E855E260E070E00E94C64228
:1035200083E060E00E94BD3D84E060E00E94BD3D1C
:1035300083E061E00E94703E84E061E00E94703EA2
:103540001092F4051092F5051092F6051092F70509
:103550001092F8051092F9051092FA051092FB05E9
:103560001092FC051092FD052FE536E080E090E01A
:103570004EE450E00DC01192E217F307E1F710821C
:10358000118201969F01225B3F4F8530910551F0DA
:10359000849FF001859FF00D949FF00D1124E95A4E
:1035A000F94FE9CF0E94A8110E94BC100E948C1014
:1035B00066DD0E94F708A3DF0C94C408FC01608359
:1035C0000895EF92FF920F931F93FC01F62EE42EC5
:1035D00005EB19E0C8016081BDD2C8016F2D45D34C
:1035E000C8016E2D42D3C80181D31F910F91FF9066
:1035F000EF90089560E040E0E4CFAF92BF92CF92A9
:10360000DF92EF92FF920F931F93FC01062FD42EAF
:10361000C52EB22EA32E95EBE92E99E0F92EC70107
:10362000608198D210E0000F111F000F111F0A5F78
:103630001F4FC701602F19D3C7016D2D16D3C701C6
:103640006C2D13D3C7016B2D10D3C7016A2D0DD379
:10365000C7014CD31F910F91FF90EF90DF90CF9057
:10366000BF90AF900895DF92EF92FF920F931F9358
:103670008C01D62E25EBE22E29E0F22EC701F801AF
:10368000608168D2C7016D2DF0D2C7012FD3C70169
:10369000F801608141E03AD3C70179D21F910F91BF
:1036A000FF90EF90DF900895BF92CF92DF92EF925C
:1036B000FF920F931F936C01CB01BA0126E636E609
:1036C00046E65FE30E942B489B01AC0160E27CEB85
:1036D0008EEB95E40E94B44620E030E040E85FE3E2
:1036E0000E944F4620E030E040E05FE30E945046F9
:1036F0000E9485477B018C01C60160E0B4DFB82ED3
:10370000482F4F764061C60160E05BDFC801B7011A
:103710000E941C479B01AC01C6016EEF422F51DF96
:10372000C60160E04B2D4DDF65E070E080E090E089
:103730000E94F83C81EAB82AC60160E04B2D41DFC7
:103740001F910F91FF90EF90DF90CF90BF90089561
:103750000F931F938C0185EB99E0DAD2C8014ADF01
:103760001F910F910895EF92FF920F931F93CF93A4
:10377000DF93EC010E94EA3C7B018C018F850E9463
:10378000A23E982F898B8889882329F4198A992346
:1037900011F481E0898B99898A89981721F0ED8A43
:1037A000FE8A0F8B188F8D899E89AF89B88DA801ED
:1037B0009701281B390B4A0B5B0B8B819C81AD81D8
:1037C000BE8182179307A407B50764F499898A819B
:1037D000981741F09A83992329F08B899C89019647
:1037E0009C8B8B8B8A818823C9F48D899E89AF89B4
:1037F000B88DA8019701281B390B4A0B5B0B8F81F1
:103800009885A985BA8582179307A407B50734F46C
:103810008B899C89998388831C8A1B8A8A81882347
:10382000D1F08D899E89AF89B88DE81AF90A0A0B03
:103830001B0B8B859C85AD85BE858E159F05A007CE
:10384000B1074CF48B899C89909581959F4F998302
:1038500088831C8A1B8A89898A8BDF91CF911F916B
:103860000F91FF90EF9008951F93CF93DF93EC019A
:10387000122F6F87488B80E0442309F481E0898B05
:103880008A8B1C8A1B8A198218821A821D8A1E8AB8
:103890001F8A188E84E190E0A0E0B0E08B839C83C7
:1038A000AD83BE831F82188619861A8688EE93E040
:1038B000A0E0B0E08B879C87AD87BE878F8560E0F6
:1038C0000E94BD3D8889882331F4113021F48F8511
:1038D00061E00E94703EDF91CF911F910895FC013D
:1038E0001382128289E595E0918380836483418706
:1038F000228713860895CF92DF92EF92FF920F9363
:103900001F936C01062F85EBE82E89E0F82EC70186
:10391000F60164811FD110E0F601838590E0082B49
:10392000192BC701602FA1D1C701E0D11F910F91C1
:10393000FF90EF90DF90CF900895FF920F931F9329
:103940008C01F62E6460D7DF81E090E00E94513D4B
:103950008BEFF822C8016F2DCEDF82E390E00E944A
:10396000513D1F910F91FF900895FF920F931F9368
:103970008C01F62EC0DFC8016F2DDFDF1F910F9184
:10398000FF900895EF92FF920F931F937C01162FE3
:10399000042F607F642BE9DF1295107F102BC70185
:1039A000612FE3DF1F910F91FF90EF90089541E0A9
:1039B000E9DF80E090E0089540E0E4CFEF92FF92ED
:1039C0000F931F93CF93DF938C017A016770660F7B
:1039D000660F660F6064F0DFC0E0D0E0D801ED91C3
:1039E000FC91D701AC0FBD1F0190F081E02DC80103
:1039F0006C9119952196C830D10581F7DF91CF914F
:103A00001F910F91FF90EF900895FC016681862F22
:103A1000846086836C60CF01CFCFDF93CF93CDB727
:103A2000DEB728970FB6F894DEBF0FBECDBF9C015E
:103A3000FE013196ADE5B5E088E00D900192815030
:103A4000E1F7F9018085841710F4482F4150E42FE5
:103A5000F0E0EE0FFF1FEC0FFD1F8181680F606823
:103A6000C901AADF28960FB6F894DEBF0FBECDBFFE
:103A7000CF91DF91089562E09FDF80ED97E00C9495
:103A8000513D61E099DF80ED97E00C94513DFC01E0
:103A900088E08387CF0160E02ECFCF93DF93EC01E6
:103AA000423018F08D8188608D834887222329F069
:103AB000413019F48D8184608D8362E370E080E091
:103AC00090E00E94F83CCE016B8515DF68EE73E054
:103AD00080E090E00E94F83CCE0160E346DF84E99C
:103AE00091E10E94513DCE0160E33FDF84E991E125
:103AF0000E94513DCE0160E338DF86E990E00E94EC
:103B0000513DCE0160E231DF6D816062CE0154DF54
:103B100084E08E83CE0179DFCE01B3DF82E08F8334
:103B2000CE0166E049DFCE01A6DFDF91CF91089597
:103B30000F931F938C0185EB99E0EAD0F801158271
:103B4000C8016185428520E0A8DF1F910F9108958B
:103B5000EFCF089581E08093B409609391091092AA
:103B6000B2091092B309089581E08093B40960937B
:103B700091091092B2091092B30908952091900909
:103B800030E080918F09281B3109C90108954091C7
:103B90008F0980919009481718F02FEF3FEF0AC066
:103BA000E42FF0E0E159F64F8081282F30E04F5F9D
:103BB00040938F09C9010895E0918F098091900980
:103BC000E81718F0EFEFFFEF06C0F0E0E159F64F0D
:103BD0008081E82FF0E0CF01089508951092B80990
:103BE0001092B70988EE93E0A0E0B0E08093B909A5
:103BF0009093BA09A093BB09B093BC0989E695E0FC
:103C00009093B6098093B5090895CF92DF92EF9211
:103C1000FF920F931F93CF93DF937C016B018A0177
:103C20008091B4098823A1F0C0E0D0E00DC0D70195
:103C3000ED91FC91D601AC0FBD1F0190F081E02DFC
:103C4000C7016C9119952196C017D10780F303C065
:103C5000CB01642F04D1C801DF91CF911F910F9147
:103C6000FF90EF90DF90CF900895DF93CF930F9266
:103C7000CDB7DEB7FC0169838091B4098823C9F010
:103C80008091B309803238F081E090E093838283A1
:103C900020E030E014C08091B209E82FF0E0EE5649
:103CA000F64F998190838F5F8093B2098093B30917
:103CB00004C0CE01019661E0D2D021E030E0C9011C
:103CC0000F90CF91DF9108950F93062F8091910966
:103CD00062E979E04091B30921E06CD01092B20919
:103CE0001092B3091092B4090F91089561E0ECCFDE
:103CF000413208F040E2862F6FE679E012D0109250
:103D00008F0980939009089521E0F2CF21E0F0CF50
:103D100010928F09109290091092B2091092B30973
:103D20004EC2382F413210F040E042C08091C109AC
:103D30008823E1F791E09093C1092093C3098FEFA5
:103D400080932E0A1092E90941504093EA094F5F8F
:103D50009093C2098091C209330F832B8093C209CB
:103D60008091C409813041F41092C4098091C20944
:103D70008093BB0085EC01C085EE8093BC008091F0
:103D8000C1098130E1F38091E909841710F4409171
:103D9000E90920E030E00AC0FB01E20FF31FD9017E
:103DA000A753B64F8C9180832F5F3F4F2417A0F30A
:103DB000842F08950F931F93582F122F413210F024
:103DC00081E04AC08091C1098823E1F782E08093B5
:103DD000C1090093C3098FEF80932E0A1092E9095D
:103DE0004093EA09A9ECB9E0FB0102C081918D93EF
:103DF0008E2F861B8417D0F31092C2098091C209BE
:103E0000550F852B8093C2098091C409813041F4FC
:103E10001092C4098091C2098093BB0085EC01C057
:103E200085EE8093BC00112321F08091C10982307E
:103E3000E1F380912E0A8F3F11F480E00DC0809154
:103E40002E0A803211F482E007C080912E0A80335E
:103E500011F084E001C083E01F910F910895482F75
:103E6000613210F081E008958091C109843011F031
:103E700082E0089560930C0AABEEB9E0842F9C01B8
:103E8000F90102C081918D938E2F841B8617D0F388
:103E900080E008951F920F920FB60F920BB60F920B
:103EA00011242F933F934F935F936F937F938F933F
:103EB0009F93AF93BF93EF93FF938091B90090E0EE
:103EC000887F90708036910509F4F2C081369105A3
:103ED000CCF58832910509F47BC089329105B4F4A0
:103EE0008031910509F46FC0813191053CF4009750
:103EF00009F447C1089709F04FC165C088319105A1
:103F000009F466C0809709F047C182C080349105EA
:103F100009F4A4C08134910544F48033910509F477
:103F200082C0C89709F038C189C08035910509F46D
:103F300089C08835910509F496C08834910509F047
:103F40002BC1AEC08839910509F413C18939910597
:103F5000ECF48837910509F4ABC0893791054CF42E
:103F60008836910509F4A4C08037910509F014C181
:103F70009FC08838910509F4FCC08039910509F487
:103F80009DC08038910509F007C198C0803B91051C
:103F900009F4C6C0813B91054CF4803A910509F4BF
:103FA0009FC0883A910509F0F7C0BAC0803C9105DE
:103FB00009F4E3C0883C910509F4DFC0883B910512
:103FC00009F0EAC0C2C08091C2098093BB00CFC093
:103FD0009091E9098091EA09981768F49091E909AC
:103FE000E92FF0E0E753F64F80818093BB009F5F9D
:103FF0009093E909BCC08091C309882309F44BC0A0
:1040000085ED8093BC008091BC0084FDFCCFC2C0D4
:1040100080E280932E0A85ED8093BC008091BC00E5
:1040200084FDFCCFB7C080E380932E0A85ED80939A
:10403000BC008091BC0084FDFCCFACC088E38093C1
:104040002E0A9BC08091E9099091BB00E82FF0E017
:10405000E753F64F90838F5F8093E9099091E909C8
:104060008091EA0982C08091E9099091BB00E82F14
:10407000F0E0E753F64F90838F5F8093E9098091DA
:10408000C309882341F085ED8093BC008091BC007A
:1040900084FDFCCF7FC081E08093C40984EA6EC0B8
:1040A00085ED8093BC008091BC0084FDFCCF72C084
:1040B00083E08093C10910922D0A59C080912D0A86
:1040C000803208F056C080912D0A9091BB00E82FF5
:1040D000F0E0E35FF54F90838F5F80932D0A47C038
:1040E00080912D0A803230F4E0912D0AF0E0E35FF8
:1040F000F54F108285ED8093BC008091BC0084FD5B
:10410000FCCF1092C10960912D0AE091C709F0918E
:10411000C8098DE09AE070E0199510922D0A2DC023
:1041200084E08093C10910920B0A10920C0AE0916E
:10413000C509F091C609199580910C0A882329F4C4
:1041400081E080930C0A1092EB0990910B0AE92F01
:10415000F0E0E551F64F80818093BB009F5F909324
:104160000B0A90910B0A80910C0A981710F485ECB9
:1041700001C085E88093BC000FC085EC8093BC0033
:1041800009C010922E0A85ED8093BC008091BC007E
:1041900084FDFCCF1092C109FF91EF91BF91AF91C7
:1041A0009F918F917F916F915F914F913F912F914F
:1041B0000F900BBE0F900FBE0F901F90189510928E
:1041C000C10981E08093C3091092C40984E161E0D0
:1041D0000E94703E85E161E00E94703EE9EBF0E0F4
:1041E00080818E7F808380818D7F808388E480932F
:1041F000B80085E48093BC0008950F931F93CF937C
:10420000DF93FC01738D76957170A685B7859585D2
:10421000772329F08C91892309F454C004C08C9130
:10422000892309F04FC08389948920E001972FEFFB
:104230008F3F9207D9F7C589D689A685B785158599
:1042400060E031E040E050E000E0CE01202F019737
:104250002FEF8F3F9207D9F78C91812311F0632BB9
:1042600003C0832F80956823330F4F5F5F4F483023
:10427000510559F78789908D20E001972FEF8F3FE7
:104280009207D9F7711160958091710A2091720A95
:1042900090E001968F73907030E08217930779F069
:1042A000E091710AF0E0EF5CF54F60838091710A54
:1042B00090E001968F7390708093710A03C0838D94
:1042C0008160838FDF91CF911F910F9108951F928D
:1042D0000F920FB60F920BB60F9211242F933F93AC
:1042E0004F935F936F937F938F939F93AF93BF93FE
:1042F000EF93FF9380912F0A9091300A009709F075
:104300007CDFFF91EF91BF91AF919F918F917F9152
:104310006F915F914F913F912F910F900BBE0F9036
:104320000FBE0F901F9018951F920F920FB60F920D
:104330000BB60F9211242F933F934F935F936F937C
:104340007F938F939F93AF93BF93EF93FF9380914E
:104350002F0A9091300A009709F04FDFFF91EF91FB
:10436000BF91AF919F918F917F916F915F914F918D
:104370003F912F910F900BBE0F900FBE0F901F908B
:1043800018951F920F920FB60F920BB60F92112431
:104390002F933F934F935F936F937F938F939F934D
:1043A000AF93BF93EF93FF9380912F0A9091300AC0
:1043B000009709F022DFFF91EF91BF91AF919F919C
:1043C0008F917F916F915F914F913F912F910F90BE
:1043D0000BBE0F900FBE0F901F901895CF92DF92DB
:1043E000EF92FF920F931F93CF93DF93EC017A012B
:1043F0008B011A8E198E188E1F8A1E8A1D8A1C8A9E
:104400001B8A20E030E06901CC0CDD1CC20ED31EFB
:10441000B601660F771F660F771FAB014C515F4FD8
:10442000FA0185919591A591B4918E159F05A007EC
:10443000B107E9F4FB01E851FF4F859194919C8B02
:104440008B8BFB01E651FF4F859194919E8B8D8B59
:10445000FB01E451FF4F85919491988F8F8BFB0165
:10446000E251FF4F859194919A8F898F06C02F5FFB
:104470003F4F2D30310509F0C6CF8F89988D892B9C
:1044800009F468C09C85292F2A50243040F0892FD8
:104490008253843020F08C50883008F053C0309123
:1044A0006800243048F0892F8253843028F09E53CE
:1044B000983010F484E001C081E0832B8093680081
:1044C0002C85922F9A50943090F0822F8253843012
:1044D00070F08C50883008F455C0A0E0B0E088300F
:1044E00018F0E0E0F0E007C0EDE6F0E004C0EBE635
:1044F000F0E0ABE6B0E04081943020F430E02650AC
:10450000304015C0223311F488E01AC0233311F46F
:1045100084E016C0243311F482E012C0253379F010
:10452000822F8E53883058F430E02E53304081E093
:1045300090E002C0880F991F2A95E2F701C081E040
:10454000842B8C93898D9A8D20E001972FEF8F3FDC
:104550009207D9F780912F0A9091300A8C179D0706
:10456000A1F08B8D8E7F8B8F9FB7F8941092710A7C
:104570008091710A8093720AD093300AC0932F0AF7
:104580009FBF03C0ADE6B0E0AACFDF91CF911F91EE
:104590000F91FF90EF90DF90CF900895FC0124855C
:1045A000922F9A50943060F0822F8253843040F0E2
:1045B0008C50883088F5EDE6F0E0ADE6B0E004C060
:1045C000EBE6F0E0ABE6B0E04081943020F430E080
:1045D0002650304015C0223311F487EF1BC023331F
:1045E00011F48BEF17C0243311F48DEF13C0253372
:1045F00081F0822F8E53883060F430E02E533040AB
:1046000081E090E002C0880F991F2A95E2F780951B
:1046100001C08EEF84238C930895FC0189E795E017
:1046200091838083CF01BACF20912F0A3091300A35
:104630002817390731F49091720A8091710A9817FE
:1046400019F42FEF3FEF0FC0E091720AF0E0EF5C3A
:10465000F54F20818091720A90E001968F739070DF
:104660008093720A30E0C901089520912F0A309199
:10467000300A2817390719F020E030E00EC0809189
:10468000710A2091720A90E0805C9F4F821B910911
:1046900060E470E00E94CD489C01C90108950F9329
:1046A0001F93DC0159968D919C915A97892B49F45F
:1046B00081E090E013969C938E93129720E030E077
:1046C00097C00FB7F8945B968C915B975196ED91DC
:1046D000FC91529750962C91509781FF8DC080810C
:1046E000822B808359968D919C915A97059620E054
:1046F00001972FEF8F3F9207D9F75B968C915B97CD
:1047000081FF35C031E040E050E070E010E0832FE1
:1047100090E0862397235196ED91FC915297509605
:104720002C915097892B29F0808120952823208374
:1047300003C08081822B808359968D919C915A97DA
:10474000212F01972FEF8F3F9207D9F7330F4F5F3C
:104750005F4F48305105D9F65196ED91FC91529733
:10476000908150968C9150978095892333C031E089
:1047700040E050E070E010E0832F90E08623972324
:104780005196ED91FC91529750962C915097892B10
:1047900021F08081822B808304C080812095282392
:1047A000208359968D919C915A97212F01972FEF35
:1047B0008F3F9207D9F7330F4F5F5F4F4830510556
:1047C000D9F65196ED91FC915297808150969C912B
:1047D0005097892B80830FBF59968D919C915A9742
:1047E00020E001972FEF8F3F9207D9F721E030E0CB
:1047F000C9011F910F91089580812095282320835E
:1048000071CF20912F0A3091300A2817390749F4C7
:104810009FB7F8941092710A8091710A8093720A7E
:104820009FBF089520912F0A3091300A2817390729
:1048300031F49091720A8091710A981719F42FEF50
:104840003FEF0AC0E091720AF0E0EF5CF54F808123
:10485000282F332727FD3095C90108951F93CF9343
:10486000DF93EC01162F862F60E00E94BD3D8B8DFB
:1048700081FD04C0812F61E00E94703E1C87212FC2
:1048800030E0C9018C5E9D4FFC0184918D872253DD
:104890003E4FF9016491E62FF0E0EE0FFF1FEC545C
:1048A000FE4F859194919F878E87DF91CF911F91C5
:1048B0000895FF920F931F938C01F62E862F61E0CF
:1048C0000E94BD3D8F2D61E00E94703E8F2D90E0D3
:1048D000FC01EC5EFD4FE491D8015096EC935097AB
:1048E00082539E4FFC016491E62FF0E0EE0FFF1F14
:1048F000E656FE4F8591949152969C938E935197D4
:104900001F910F91FF900895FF920F931F938C01B9
:10491000F62EFC011382128288EE93E0A0E0B0E054
:1049200084839583A683B78389E795E09183808309
:10493000148A138A168A158A108E178A128E118E7F
:10494000838D2170220F8C7F822B838FC801642F6F
:10495000B0DFC8016F2D82DF1F910F91FF90089586
:1049600085E361E00E94703E85E361E00E94BD3D09
:104970008CB580618CBD8CB580648CBD84E361E0B6
:104980000E94BD3D83E361E00C94BD3DFB0180E3EB
:104990008083842F82958F704F704A3014F4405D6D
:1049A00001C0495C41833197882311F0482FF1CF32
:1049B00008950F9383E79AE060E040E020E000E094
:1049C0000E94CD450F9108950F931F938C01625E55
:1049D0007F4F0E943446C8011F910F9108950F9395
:1049E0001F938C016A5E7F4F0E943446C8011F915D
:1049F0000F9108950F931F938C016E5E7F4F0E945D
:104A00003446C8011F910F9108950F931F938C0195
:104A1000625F7F4F0E943446C8011F910F91089535
:104A20002F923F924F925F926F927F928F929F92BE
:104A3000AF92BF92CF92DF92EF92FF920F931F93AC
:104A4000DF93CF93CDB7DEB7E8970FB6F894DEBF0C
:104A50000FBECDBF5C013A014B0129010E94EA3C27
:104A60007B018C01F7E4CF2ED12CCA0CDB1C14C0C7
:104A70000E94EA3C6E197F09800B910B661677063F
:104A80008806990618F477247A941AC262E370E0D3
:104A900080E090E00E94F83CC6010E947A3018162F
:104AA000190634F7C601BE01635F7F4F42E250E052
:104AB0000E942E308D85823009F0FEC12CE530E059
:104AC000A20EB31EF5018081918124EA3FEFA20E70
:104AD000B31E8334910509F0EFC129893A894B89C6
:104AE0005C89E52EFF2400271127B22FAA279927DA
:104AF0008827E82AF92A0A2B1B2BB42FA32F922FE1
:104B0000882780709070B070E82AF92A0A2B1B2B36
:104B1000232F342F452F5527207040705070E22AE4
:104B2000F32A042B152BF201E082F1820283138316
:104B3000B501685F7F4FCE01899646E050E00E9444
:104B40000302009799F4F50180819181A281B381DC
:104B5000E816F9060A071B0748F084819581A681AB
:104B6000B7818E159F05A007B10728F4C6010E94E2
:104B7000F72F7724A5C18D8D9E8DAF8DB8A1F5013E
:104B800086879787A08BB18B00E010E0C6010E945A
:104B900050300F5F1F4F0E3C1105C1F795012E5E7F
:104BA0003F4F38AF2FABC50146969EAB8DABF5019D
:104BB0007E96FCABEBAB8AE1882E912C8A0C9B1C79
:104BC00095012A5D3F4F3AAB29ABC5018A9698AB58
:104BD0008FA702E2202E312C2A0C3B1C772418E5EB
:104BE000412E512C4A0C5B1C5FC1C6010E94503003
:104BF0008333910509F414C1843391058CF4813019
:104C0000910569F18230910524F4892B09F44CC196
:104C100040C18330910551F1069709F03AC142C075
:104C20008A33910509F490C08B3391053CF48533A8
:104C3000910569F0C69709F02CC150C08B339105DE
:104C400009F4B8C08F3F910509F023C12DC1C601F9
:104C50000E945030C6010E945030782E25C1C601F6
:104C60000E945030C6016FA978AD62C0C6010E9493
:104C70005030182FC6016DA97EA944E050E00E9473
:104C80002E30EE24FF24012F10E00450104006C007
:104C9000C6010E9450300894E11CF11CE016F10698
:104CA000BCF302C1C6010E945030182FC6016BA987
:104CB0007CA944E050E00E942E30EE24FF24012F16
:104CC00010E00450104006C0C6010E945030089405
:104CD000E11CF11CE016F106BCF3E6C0C6010E941F
:104CE0005030182FF40180819181A281B381009707
:104CF000A105B105D9F0CE010196B4010E94344658
:104D00002DEB35E038872F83F201208131814281FC
:104D1000538129873A874B875C878B819C81AD8142
:104D2000BE8182179307A407B50759F4C601B401E1
:104D300044E050E00E942E30B7C0C6010E945030BF
:104D400011501123D1F7B0C0C6010E945030C601E6
:104D500069A97AA944E050E00E942E30F50126A10D
:104D600037A140A551A5E52EFF2400271127B22F1A
:104D7000AA2799278827E82AF92A0A2B1B2BB42F60
:104D8000A32F922F882780709070B070E82AF92A9C
:104D90000A2B1B2B232F342F452F552720704070B3
:104DA0005070E22AF32A042B152BE6A2F7A200A7E3
:104DB00011A77AC0C6010E945030C6016FA578A91C
:104DC00044E050E00E942E30F50122A533A544A511
:104DD00055A5E52EFF2400271127B22FAA279927D2
:104DE0008827E82AF92A0A2B1B2BB42FA32F922FEE
:104DF000882780709070B070E82AF92A0A2B1B2B44
:104E0000232F342F452F5527207040705070E22AF1
:104E1000F32A042B152BE2A6F3A604A715A744C07A
:104E2000C6010E945030C601B10144E050E00E942A
:104E30002E30F50122A133A144A155A1E52EFF2476
:104E400000271127B22FAA2799278827E82AF92AAD
:104E50000A2B1B2BB42FA32F922F882780709070C2
:104E6000B070E82AF92A0A2B1B2B232F342F452F49
:104E70005527207040705070E22AF32A042B152B1E
:104E8000E2A2F3A204A315A3E6A6F7A600AB11AB1A
:104E90000BC0C6010E945030182F04C0C6010E94EA
:104EA000503011501123D1F7C6010E94DB2F181684
:104EB00019060CF49ACE01C07724C6010E94F72F80
:104EC000872DE8960FB6F894DEBF0FBECDBFCF9109
:104ED000DF911F910F91FF90EF90DF90CF90BF90E7
:104EE000AF909F908F907F906F905F904F903F908A
:104EF0002F9008950E96FC0184E1DF011D928A95A2
:104F0000E9F708954F925F926F927F928F929F92EE
:104F1000AF92BF92CF92DF92EF92FF920F931F93C7
:104F2000DF93CF93CDB7DEB7E2970FB6F894DEBF2D
:104F30000FBECDBF6C01462E3A01F3E18F2E912CAE
:104F40008C0E9D1EE0E25E2EF401252D11922A9515
:104F5000E9F7CE0107966FEF4FEF2FEF0FEF0E94AB
:104F6000CD4577E4A72EB12CAC0CBD1C8DEB95E0A4
:104F70009E878D8789859A85AB85BC858F87988B21
:104F8000A98BBA8BC501BE01635F7F4F43E450E03C
:104F90000E94E9308F5F9F4F09F4F0C081E08B8B56
:104FA0008C8B86E08D8B1E8AF601248135814681AB
:104FB0005781E52EFF2400271127B22FAA27992712
:104FC0008827E82AF92A0A2B1B2BB42FA32F922F0C
:104FD000882780709070B070E82AF92A0A2B1B2B62
:104FE000232F342F452F5527207040705070E22A10
:104FF000F32A042B152BEB82FC820D831E83EF8A90
:10500000F88E098F1A8F7B8E6C8E80E890E09A83E1
:1050100089839E8F8D8FC501B4014CE150E00E94C1
:10502000CC30F40111925A94E9F7A8E06A2E712C61
:105030006C0C7D1CD401F30186E001900D9281502F
:10504000E1F78E010D5E1F4FC501B80140E150E050
:105050000E94CC3080E2F80111928A95E9F7EE24A3
:10506000FF24902E012FC501692D702F40E250E0E2
:105070000E94CC300894E11CF11CF6E0EF16F1041C
:1050800091F793E69B8B82E88C8B83E58D8B9E8BCF
:1050900085E38F8B91E0988F498E8DE38A8F87E02F
:1050A0008B8F9C8FDE015D96F30186E001900D925F
:1050B0008150E1F78CE08BA38CA38E010D5E1F4F16
:1050C000CE0185966CE373E00E942902C601BE0101
:1050D000655D7F4FF601438559DCC601BE01635D06
:1050E0007F4FF601448552DCC601BE01615D7F4FF2
:1050F000F60145854BDCC501B8014EE150E00E9448
:10510000CC30F3E04F16F1F482E38B8B94E09C8B70
:10511000F60186858D8B87858E8B80898F8B818923
:10512000888F86E3898F9A8F828D8B8F838D8C8F6A
:10513000848D8D8F858D8E8FC501B8014CE050E038
:105140000E94CC3087E38B8B96E09C8B81E08D8B2B
:1051500083E08E8B9F8B8FE0888F8AE3898F8BE330
:105160008A8F8FEF8B8FC501BE016D5E7F4F49E047
:1051700050E00E94CC30C5010E94E630E2960FB6A6
:10518000F894DEBF0FBECDBFCF91DF911F910F917D
:10519000FF90EF90DF90CF90BF90AF909F908F9057
:1051A0007F906F905F904F9008952F923F924F9213
:1051B0005F926F927F928F929F92AF92BF92CF92A7
:1051C000DF92EF92FF920F931F93DF93CF9300D064
:1051D0000F92CDB7DEB78C0161E070E080E090E027
:1051E00020ED37E040E050E00E949445D80114964D
:1051F0006C93149715967C93159716968C93169727
:1052000017969C9317976C9311967C93119712960F
:105210008C93129713969C9377E4472E512C400E53
:10522000511EC2010E947131C20164E470E00E940B
:105230008531882319F4662477241CC10E94EA3C36
:105240004B015C016624772466E4C62ED12CC00E87
:10525000D11E5EE3252E312C200E311E42E0E42EBD
:10526000F6C0882301F5F80184819581A681B78174
:105270000196A11DB11D84839583A683B7830E94E7
:10528000EA3C681979098A099B0928EE33E040E075
:1052900050E00E94E048C80161E0A90133DE81E0EE
:1052A000D6018C93BEC08430F9F4F80184819581D5
:1052B000A681B7810196A11DB11D84839583A68324
:1052C000B7830E94EA3C681979098A099B0928EE8C
:1052D00033E040E050E00E94E048C80163E0A901EB
:1052E00011DED601EC929DC0813059F5F10140816B
:1052F000518162817381C8019E012F5F3F4F90DB16
:10530000F82EF2E08F1709F087C089819A81AB816E
:10531000BC81F80184839583A683B7830E94EA3C0D
:10532000681979098A099B0928EE33E040E050E0CA
:105330000E94E048C80163E0A901E4DDD601FC92C7
:1053400070C0823009F06DC0F101408151816281ED
:105350007381C8019E012F5F3F4F62DBF82EF5E09D
:105360008F1709F053C0E3E0D601EC93F80182A156
:1053700093A1A4A1B5A10097A105B10541F484E8CA
:1053800093E0A0E0B0E082A393A3A4A3B5A3F801A7
:1053900086A197A1A0A5B1A50097A105B10561F4CB
:1053A00082A193A1A4A1B5A1B695A795979587953C
:1053B00086A397A3A0A7B1A7F80182A593A5A4A54A
:1053C000B5A50097A105B10561F486A197A1A0A597
:1053D000B1A5880F991FAA1FBB1F82A793A7A4A7D7
:1053E000B5A7F80186A197A1A0A5B1A586A797A703
:1053F000A0ABB1AB82A593A5A4A5B5A582AB93AB99
:10540000A4ABB5ABA1E06A2E712C0BC0F6E08F17F0
:1054100019F4D6011C9205C0BFEFFB1611F4F6017A
:105420001082F1E06F16710491F00E94EA3C681955
:1054300079098A099B09D801DA962D913D914D9100
:105440005C91DD97261737074807590728F0F601C2
:105450008081833009F005CFC20143D7F8018481F0
:105460009581A681B7810196A11DB11D8483958385
:10547000A683B783C3010F900F900F900F90CF9129
:10548000DF911F910F91FF90EF90DF90CF90BF9031
:10549000AF909F908F907F906F905F904F903F90D4
:1054A0002F900895CF92DF92EF92FF920F931F9368
:1054B000CF93DF93EC01D62EC72E1AA21BA21CA2FB
:1054C0001DA21EA21FA218A619A61AA61BA61CA6DC
:1054D0001DA61EAA1FAA18AE19AE2AAF3BAF4CAF2D
:1054E0005DAFEE96E882F9820A831B83EE978E0108
:1054F000085F1F4F86E0F80111928A95E9F7CE0107
:10550000F9DCD8012D2D3C2DC901FC0186E001906C
:105510000D928150E1F7CA5BDF4F1882C654D0402C
:10552000CE0143DEDF91CF911F910F91FF90EF905D
:10553000DF90CF900895DB01FC012DEB35E0318346
:10554000208312962D913D914D915C911597228368
:1055500033834483558308950F9389E89AE060E08C
:1055600040E020E000E00E94CD4581E89AE00E9402
:1055700045460F910895EF92FF920F931F93182FB6
:10558000092FE82EF92EC7010E94454682E090E0DF
:10559000E80EF91E8FE090E0B70144E050E00E9471
:1055A000F332812F902F1F910F91FF90EF9008956C
:1055B0006F927F928F929F92AF92BF92CF92DF9223
:1055C000EF92FF920F931F933C015B016A01490127
:1055D00081E19BE00E94A93389E090E0B50146E0BB
:1055E00050E0E6D682E090E0C80ED91E8FE090E051
:1055F000B60144E050E0DCD60E5F1F4F81E090E042
:10560000B80144E050E0D4D6E2E0F0E0EE0EFF1E38
:1056100085E090E0B70144E050E0CAD6F401828111
:105620009381A481B581F30182839383A483B5839D
:105630001F910F91FF90EF90DF90CF90BF90AF90B0
:105640009F908F907F906F9008956F927F928F922E
:105650009F92AF92BF92CF92DF92EF92FF920F9301
:105660001F93DF93CF93CDB7DEB76E970FB6F89445
:10567000DEBF0FBECDBF4C013B017A01690158016D
:10568000CE0101966FEF4FEF2FEF00E00E94CD4566
:105690002DEB35E038872F83F70182819381A48138
:1056A000B58189879A87AB87BC873E872D87F601AE
:1056B00082819381A481B5818F87988BA98BBA8BC6
:1056C0003C8B2B8BF50182819381A481B5818D8BDD
:1056D0009E8BAF8BB88F3A8F298F8B819C81AD8148
:1056E000BE818B8F9C8FAD8FBE8FC401B301AE0185
:1056F000495F5F4F9E01235F3F4F8E010D5E1F4F3D
:10570000E9E1EE2EF12CEC0EFD1E52DF6E960FB687
:10571000F894DEBF0FBECDBFCF91DF911F910F91E7
:10572000FF90EF90DF90CF90BF90AF909F908F90C1
:105730007F906F9008950F931F93DF93CF93CDB712
:10574000DEB768970FB6F894DEBF0FBECDBFFA0183
:10575000D90122813381448155812B833C834D8340
:105760005E83EDEBF5E0F887EF8329873A874B8777
:105770005C87FE87ED8712962D913D914D915C914E
:1057800015972F87388B498B5A8BFC8BEB8B21E03D
:105790002E832B813C814D815E812D8B3E8B4F8BE7
:1057A000588FAE01495F5F4F9E01235F3F4F8E01CF
:1057B0000D5E1F4F4ADF68960FB6F894DEBF0FBE2E
:1057C000CDBFCF91DF911F910F910895DF93CF93BC
:1057D000CDB7DEB762970FB6F894DEBF0FBECDBF70
:1057E000FA0122813381448155812B833C834D838F
:1057F0005E83EDEBF5E0F887EF8329873A874B87E7
:105800005C87FE87ED8721E02E832B813C814D81D3
:105810005E812F87388B498B5A8BAE01495F5F4F72
:105820009E01235F3F4F87DF62960FB6F894DEBF7D
:105830000FBECDBFCF91DF910895CF92DF92EF924F
:10584000FF920F931F93DF93CF93CDB7DEB76E9781
:105850000FB6F894DEBF0FBECDBF6C017B01809107
:105860008F0A882369F48FE89AE00E94B145892B5A
:1058700039F08EED9AE0B4D48FE89AE00E94BB45EF
:1058800087E99AE0F6019783868381E19BE061D7FF
:1058900089E090E0B70146E050E08AD5CE0101965C
:1058A00060E040E020E000E00E94CD458FE090E025
:1058B000BE016D5F7F4F44E050E07AD5F6018681EE
:1058C0009781B70120E63AEE40E050E0F0EAEF2E93
:1058D000FFE0FF2E012D112DE5DD8C0181309105BA
:1058E00009F039C0F60166817781CE0107968DD81F
:1058F0008FE090E0BE01675F7F4F44E050E058D5F5
:10590000F60166817781CE010D9669D881E090E03D
:10591000BE01615F7F4F44E050E04AD5F6016681E9
:105920007781CE01439666D885E090E0BE016B5E3C
:105930007F4F44E050E03CD5F60166817781CE018F
:10594000499642D88B8D9C8DAD8DBE8DF60182839C
:105950009383A483B583C8016E960FB6F894DEBF17
:105960000FBECDBFCF91DF911F910F91FF90EF90B0
:10597000DF90CF9008950F9389EF9AE060E040E0C8
:1059800020E000E00E94CD450F9108959C01FB01AD
:1059900082819381A481B581F90182839383A48359
:1059A000B583178216820895CF93DF93FB0101C060
:1059B000319680818823E1F7EB01A0E0B0E020E0A0
:1059C00030E021C06E3261F42F3F310509F07CF5E3
:1059D000FA01EA0FFB1F2283119620E030E012C08B
:1059E000C901E3E0880F991FEA95E1F7220F331F01
:1059F000820F931F262F332727FD309520533040E9
:105A0000280F391F21966881662319F0A430B1054B
:105A1000CCF22F3F310509F054F4A430B1053CF429
:105A2000A40FB51F12962C9321E030E002C020E0B5
:105A300030E0C901DF91CF9108950F938FEF9AE085
:105A400060E040E020E000E00E94CD450F91089525
:105A50002F923F924F925F926F927F928F929F927E
:105A6000AF92BF92CF92DF92EF92FF920F931F936C
:105A7000DF93CF93CDB7DEB769970FB6F894DEBF4B
:105A80000FBECDBF4C018B011A010E94EA3C2B01D5
:105A90003C01F8E0EF2EF12CE80CF91C5801CC2465
:105AA000DD2414C00E94EA3C64197509860997092F
:105AB000A616B706C806D90618F42FEF3FEFF8C0B0
:105AC00062E370E080E090E00E94F83CC70112D3EE
:105AD000181619063CF7F40122813381448155815F
